:030000000208E112
:0C08E100787FE4F6D8FD7581070208ED71
:10086C001208BE7FE07E2E12087F7F201208BE7F0A
:03087C00E07E2EED
:10087F00E4FDFCC3ED9FEC9E50070DBD00010C8005
:01088F00F276
:010890002245
:1008AC00C2908F80C291C2927F967E0012087FD236
:0208BC00922286
:1008BE00D2908F80C291D2927F967E0012087FC214
:0208CE00922274
:100891007F381208AC7F0C1208AC7F011208AC7FC4
:0B08A100801208AC7F967E0002087FEA
:1008D0007F381208AC7FC01208AC7F967E000208F9
:0108E0007F98
:100800007F431208787F6F1208787F641208787F20
:100810006512086C7F621208787F7912086C1208E2
:10082000D012087B7F441208787F681208787F72A4
:100830001208787F751208787F6D1208787F691228
:1008400008787F6C12086C7F4D1208787F69120857
:10085000787F731208787F741208787F7212087894
:0C0860007F791208BE7FE07E2E02087F28
:0B08ED00E4F58012089112080080FB67
:00000001FF
